:020000040000FA
:10000000A00200200D0300001503000017030000EC
:10001000190300001B0300001D0300000000000086
:100020000000000000000000000000001F030000AE
:10003000210300000000000023030000250300004E
:1000400027030000290300002B0300002D030000FC
:100050002F030000310300003303000035030000CC
:1000600037030000390300003B0300003D0300009C
:100070003F0300004103000043030000450300006C
:1000800047030000490300004B0300004D0300003C
:100090004F0300005103000053030000550300000C
:1000A00057030000590300005B0300005D030000DC
:1000B0005F030000610300004507000065030000C6
:1000C00067030000690300006B0300006D0300007C
:1000D0006F0300007103000073030000750300004C
:1000E0007703000079030000000000007B0300009C
:1000F0007D0300007F0300008103000083030000F4
:100100008503000087030000890300008B030000C3
:1001100000000000000000008D0300008F030000BD
:100120009103000093030000950300009703000073
:10013000990300009B0300009D0300009F03000043
:1001400000000000000000000000000000000000AF
:10015000A1030000A3030000A5030000A703000003
:10016000000000000000000000000000000000008F
:10017000000000000000000000000000000000007F
:10018000000000000000000000000000000000006F
:10019000000000000000000000000000000000005F
:1001A000000000000000000000000000000000004F
:1001B000A9030000AB030000AD030000AF03000083
:1001C000B1030000B3030000B5030000B703000053
:1001D000B9030000BB030000BD030000BF03000023
:1001E000C1030000C3030000C503000000000000BD
:1001F00000000000C7030000C9030000CB0300009B
:10020000CD030000CF03000000000000000000004C
:10021000D1030000D3030000D5030000D703000082
:10022000D9030000DB030000DD030000DF03000052
:10023000E1030000E3030000E5030000E703000022
:10024000E9030000EB030000ED030000EF030000F2
:10025000F1030000F3030000F5030000F7030000C2
:10026000F9030000FB030000FD03000000F002F8AA
:1002700000F03CF80AA090E8000C82448344AAF104
:100280000107DA4501D100F031F8AFF2090EBAE802
:100290000F0013F0010F18BFFB1A43F001031847BA
:1002A000D4190000F4190000103A24BF78C878C1AE
:1002B000FAD8520724BF30C830C144BF04680C606C
:1002C000704700000023002400250026103A28BFB4
:1002D00078C1FBD8520728BF30C148BF0B607047B8
:1002E0001FB501F013FC1FBD10B510BD00F006F9DD
:1002F0001146FFF7F5FF01F0FFFB00F024F903B40E
:10030000FFF7F2FF03BC00F0EBF800003F48804726
:100310003F480047FEE7FEE7FEE7FEE7FEE7FEE7B1
:10032000FEE7FEE7FEE7FEE7FEE7FEE7FEE7FEE7A5
:10033000FEE7FEE7FEE7FEE7FEE7FEE7FEE7FEE795
:10034000FEE7FEE7FEE7FEE7FEE7FEE7FEE7FEE785
:10035000FEE7FEE7FEE7FEE7FEE7FEE7FEE7FEE775
:10036000FEE7FEE7FEE7FEE7FEE7FEE7FEE7FEE765
:10037000FEE7FEE7FEE7FEE7FEE7FEE7FEE7FEE755
:10038000FEE7FEE7FEE7FEE7FEE7FEE7FEE7FEE745
:10039000FEE7FEE7FEE7FEE7FEE7FEE7FEE7FEE735
:1003A000FEE7FEE7FEE7FEE7FEE7FEE7FEE7FEE725
:1003B000FEE7FEE7FEE7FEE7FEE7FEE7FEE7FEE715
:1003C000FEE7FEE7FEE7FEE7FEE7FEE7FEE7FEE705
:1003D000FEE7FEE7FEE7FEE7FEE7FEE7FEE7FEE7F5
:1003E000FEE7FEE7FEE7FEE7FEE7FEE7FEE7FEE7E5
:1003F000FEE7FEE7FEE7FEE7FEE7FEE7FEE70000BA
:1004000004480549034A054B704700009116000057
:100410006D020000A0000020A0020020A00000202B
:100420000EB5054614460E4613A000F047F82846C0
:1004300000F044F816A000F041F8304600F03EF815
:1004400015A000F03BF800218DF80B100A210DF1EA
:100450000A008DF80A1008E094FBF1F201FB124249
:1004600094FBF1F4303200F8012D002CF4DC00F0A4
:1004700025F800F018F800002A2A2A206173736515
:100480007274696F6E206661696C65643A20000061
:100490002C2066696C6520002C206C696E6520003C
:1004A00070477047704710B5002000F01FF8FFF745
:1004B0001BFFBDE81040012000F012B810B5044643
:1004C00002E0641C00F004F820780028F9D110BD87
:1004D00008B569468DF800000320ABBE08BD0000DA
:1004E00001491820ABBEFEE72600020010B500F05F
:1004F00039F8BDE8104000F02FB87047754600F09D
:1005000049F8AE4605006946534620F00700854687
:1005100018B020B5FFF774FFBDE820404FF000068B
:100520004FF000074FF000084FF0000BAC46ACE86E
:10053000C009ACE8C009ACE8C009ACE8C00921F0CA
:1005400007018D46704710B50446AFF30080204682
:10055000BDE81040FFF7D3BE002801D0FFF7C0BFB1
:100560007047000010B5002102A000F017F801202C
:1005700010BD0000534947414252543A2041626E37
:100580006F726D616C207465726D696E6174696FF4
:100590006E000000004870473800002070B5054626
:1005A0000C460A2000E06D1CFFF792FF35B1287859
:1005B0000028F8D102E0641CFFF78AFF14B120780C
:1005C0000028F8D1BDE870400A20FFF781BF000085
:1005D00080B540F22000C2F2000001F03BF840F28A
:1005E0001800C2F2000000F087F840F20C00C2F2DE
:1005F000000001F0C1F940F23570C0F2000000F0D7
:10060000A5F980BD80B58AB040F29800C2F2000022
:10061000007801380146099104286AD80999DFE871
:1006200001F003203D5A610040F22000C2F20000B8
:10063000069000F0FBFF40F20000C2F200000790BD
:10064000018840F20C00C2F20000089001F0E2F8CC
:10065000069800F0D7FF07990898498801F0DAF862
:1006600047E040F22000C2F20000039000F0DEFFFD
:1006700040F20000C2F200000490818840F20C00B9
:10068000C2F20000059001F0C5F8039800F0BAFF2F
:1006900004990598C98801F0BDF82AE040F22000CD
:1006A000C2F20000009000F0C1FF40F20000C2F270
:1006B00000000190018940F20C00C2F2000002909B
:1006C00001F0A8F8009800F09DFF0199029849896F
:1006D00001F0A0F80DE040F22000C2F2000000F0AE
:1006E00091FF06E040F29801C2F20001002008707C
:1006F000FFE70AB080BD000080B582B00190002005
:100700008DF803008DF80300FFE79DF80300002833
:100710000EDCFFE701989DF8031000EBC10000F02C
:100720008BF8FFE79DF8030001308DF80300ECE73C
:1007300002B080BD40F29801C2F200010878013099
:100740000870704780B540F29C00C2F2000000685B
:1007500038B1FFE740F29C00C2F200000068804719
:10076000FFE70520042100F001F880BD83B08DF87B
:100770000B008DF80A109DF80A10012088400190A6
:100780009DF80B00032808DCFFE79DF80B104FF0E5
:10079000402000EB0130009008E09DF80B10002095
:1007A000C4F2020000EB01300090FFE7019A0099CB
:1007B000D1F81C041043C1F81C0403B070470000BA
:1007C00083B08DF80B008DF80A109DF80A100120F7
:1007D000884001909DF80B00032808DCFFE79DF896
:1007E0000B104FF0402000EB0130009008E09DF826
:1007F0000B100020C4F2020000EB01300090FFE774
:10080000019A0099D1F81C051043C1F81C05642019
:1008100003B0704781B08DF803009DF803100120EC
:1008200000FA01F24EF20861C4F20F0108681043A9
:100830000860642001B0704780B584B002900298CF
:1008400000287DD0FFE702980078FFF7E3FF8DF8DE
:1008500007009DF80700642804D0FFE765208DF8A5
:100860000F006EE0029A10785178927800F078F8D4
:100870008DF807009DF80700642805D0FFE79DF874
:1008800007008DF80F005CE0029A10785178D2785A
:1008900000F0CCF88DF807009DF80700642805D01B
:1008A000FFE79DF807008DF80F004AE0029A1078E4
:1008B0005178127900F0F8FA8DF807009DF80700DA
:1008C000642805D0FFE79DF807008DF80F0038E099
:1008D000029908784978FFF773FF8DF807009DF8B3
:1008E0000700642805D0FFE79DF807008DF80F008A
:1008F00027E00298407901281ED1FFE70299087885
:100900004978002200F070FA029A107851789279B2
:1009100000F0B8FC029A10785178D27900F00AFA07
:10092000029908784978FFF721FF029908784978F9
:10093000012200F059FAFFE764208DF80F0000E073
:10094000FFE79DF80F0004B080BD000081B000906B
:10095000009840F29C01C2F20001086001B07047AB
:1009600085B08DF812008DF811108DF810209DF8CB
:100970001000012826D1FFE79DF8111001208840C2
:1009800003909DF81200032808DCFFE79DF8121081
:100990004FF0402000EB0130029008E09DF812106B
:1009A0000020C4F2020000EB01300290FFE7039A3E
:1009B0000299D1F800041043C1F8000464208DF8B6
:1009C00013002EE09DF8100038BBFFE79DF81110D2
:1009D00001208840C04301909DF81200032808DCE4
:1009E000FFE79DF812104FF0402000EB013000901F
:1009F00008E09DF812100020C4F2020000EB013064
:100A00000090FFE7019A0099D1F800041040C1F866
:100A1000000464208DF8130003E066208DF81300B5
:100A2000FFE79DF8130005B07047000096B08DF801
:100A300057008DF856108DF855209DF8550050B18F
:100A4000FFE79DF85500012805D0FFE79DF8550008
:100A5000022801D1FFE70AE041F62630C0F200008B
:100A600041F66041C0F200013422FFF7D9FC9DF845
:100A700055100120149079B1FFE79DF85510012021
:100A80000129149008D0FFE79DF855000238B0FA0C
:100A900080F040091490FFE714989DF85500014636
:100AA000139148B1FFE7139801286ED0FFE7139820
:100AB000022800F0D3803AE19DF8561001208840CA
:100AC00012909DF85700032808DCFFE79DF85710A7
:100AD0004FF0402000EB0130119008E09DF85710D6
:100AE0000020C4F2020000EB01301190FFE7129ADF
:100AF0001199D1F800051043C1F800059DF8561072
:100B000001208840C04310909DF85700032808DC5E
:100B1000FFE79DF857104FF0402000EB01300F9099
:100B200008E09DF857100020C4F2020000EB0130ED
:100B30000F90FFE7109A0F99D1F804051040C1F803
:100B400004059DF8561001208840C0430E909DF882
:100B50005700032808DCFFE79DF857104FF04020AE
:100B600000EB01300D9008E09DF857100020C4F212
:100B7000020000EB01300D90FFE70E9A0D99D1F8BD
:100B800008051040C1F80805D1E09DF85610012075
:100B90008840C0430C909DF85700032808DCFFE70D
:100BA0009DF857104FF0402000EB01300B9008E00B
:100BB0009DF857100020C4F2020000EB01300B90AA
:100BC000FFE70C9A0B99D1F800051040C1F8000519
:100BD0009DF85610012088400A909DF85700032880
:100BE00008DCFFE79DF857104FF0402000EB013084
:100BF000099008E09DF857100020C4F2020000EBB5
:100C000001300990FFE70A9A0999D1F804051043C9
:100C1000C1F804059DF8561001208840C043089093
:100C20009DF85700032808DCFFE79DF857104FF0A8
:100C3000402000EB0130079008E09DF8571000209D
:100C4000C4F2020000EB01300790FFE7089A079911
:100C5000D1F808051040C1F8080568E09DF8561065
:100C600001208840C04306909DF85700032808DC07
:100C7000FFE79DF857104FF0402000EB0130059042
:100C800008E09DF857100020C4F2020000EB01308C
:100C90000590FFE7069A0599D1F800051040C1F8C4
:100CA00000059DF8561001208840C04304909DF82F
:100CB0005700032808DCFFE79DF857104FF040204D
:100CC00000EB0130039008E09DF857100020C4F2BB
:100CD000020000EB01300390FFE7049A0399D1F87A
:100CE00004051040C1F804059DF856100120884005
:100CF00002909DF85700032808DCFFE79DF8571085
:100D00004FF0402000EB0130019008E09DF85710B3
:100D10000020C4F2020000EB01300190FFE7029ACC
:100D20000199D1F808051043C1F80805FFE76420D0
:100D300016B0704785B08DF813008DF812108DF83D
:100D400011209DF8110020BBFFE79DF81210012033
:100D50008840C04303909DF81300032808DCFFE798
:100D60009DF813104FF0402000EB0130029008E096
:100D70009DF813100020C4F2020000EB0130029035
:100D8000FFE7039A0299D1F80C041040C1F80C0453
:100D900028E09DF81100012823D1FFE79DF81210EB
:100DA0000120884001909DF81300032808DCFFE72C
:100DB0009DF813104FF0402000EB0130009008E048
:100DC0009DF813100020C4F2020000EB01300090E7
:100DD000FFE7019A0099D1F80C041043C1F80C0404
:100DE000FFE7FFE705B0704780B586B08DF81700C4
:100DF0008DF816108DF815209DF81500012827D1C3
:100E0000FFE79DF816100120884004909DF8170018
:100E1000032808DCFFE79DF817104FF0402000EB97
:100E20000130039008E09DF817100020C4F2020082
:100E300000EB01300390FFE7049A0399D1F8100406
:100E40001043C1F810041E2000F03EFE62B628E0F8
:100E50009DF8150020BBFFE79DF816100120884083
:100E6000C04302909DF81700032808DCFFE79DF8B7
:100E700017104FF0402000EB0130019008E09DF882
:100E800017100020C4F2020000EB01300190FFE7D0
:100E9000029A0199D1F810041040C1F81004FFE73C
:100EA000FFE706B080BD00009CB08DF86F008DF8A4
:100EB0006E108DF86D209DF86D0050B1FFE79DF824
:100EC0006D00012805D0FFE79DF86D00022801D1D3
:100ED000FFE70AE041F60D40C0F2000041F6604134
:100EE000C0F200015122FFF79BFA9DF86D1001201E
:100EF0001A9079B1FFE79DF86D10012001291A9031
:100F000008D0FFE79DF86D000238B0FA80F0400984
:100F10001A90FFE71A989DF86D000146199150B19B
:100F2000FFE71998012800F09280FFE7199802283E
:100F300000F01981A3E19DF86E10012088401890FF
:100F40009DF86F00032808DCFFE79DF86F104FF055
:100F5000402000EB0130179008E09DF86F10002052
:100F6000C4F2020000EB01301790FFE7189A1799BE
:100F7000D1F810051043C1F810059DF86E1001203E
:100F80008840C04316909DF86F00032808DCFFE7F7
:100F90009DF86F104FF0402000EB0130159008E0F5
:100FA0009DF86F100020C4F2020000EB0130159094
:100FB000FFE7169A1599D1F814051040C1F81405E9
:100FC0009DF86E1001208840C04314909DF86F007A
:100FD000032808DCFFE79DF86F104FF0402000EB7E
:100FE0000130139008E09DF86F100020C4F2020059
:100FF00000EB01301390FFE7149A1399D1F80C0518
:101000001040C1F80C059DF86E1001208840C043C7
:1010100012909DF86F00032808DCFFE79DF86F1021
:101020004FF0402000EB0130119008E09DF86F1068
:101030000020C4F2020000EB01301190FFE7129A89
:101040001199D1F818051040C1F8180517E19DF85D
:101050006E1001208840C04310909DF86F00032857
:1010600008DCFFE79DF86F104FF0402000EB0130E7
:101070000F9008E09DF86F100020C4F2020000EB12
:1010800001300F90FFE7109A0F99D1F8100510402A
:10109000C1F810059DF86E10012088400E909DF853
:1010A0006F00032808DCFFE79DF86F104FF0402029
:1010B00000EB01300D9008E09DF86F100020C4F2A5
:1010C000020000EB01300D90FFE70E9A0D99D1F868
:1010D00014051043C1F814059DF86E1001208840D6
:1010E000C0430C909DF86F00032808DCFFE79DF8D3
:1010F0006F104FF0402000EB01300B9008E09DF89E
:101100006F100020C4F2020000EB01300B90FFE7EB
:101110000C9A0B99D1F80C051040C1F80C059DF8FC
:101120006E1001208840C0430A909DF86F0003288C
:1011300008DCFFE79DF86F104FF0402000EB013016
:10114000099008E09DF86F100020C4F2020000EB47
:1011500001300990FFE70A9A0999D1F81805104063
:10116000C1F818058BE09DF86E1001208840C0433F
:1011700008909DF86F00032808DCFFE79DF86F10CA
:101180004FF0402000EB0130079008E09DF86F1011
:101190000020C4F2020000EB01300790FFE7089A3C
:1011A0000799D1F810051040C1F810059DF86E1090
:1011B00001208840C04306909DF86F00032808DC9A
:1011C000FFE79DF86F104FF0402000EB01300590D5
:1011D00008E09DF86F100020C4F2020000EB01301F
:1011E0000590FFE7069A0599D1F814051040C1F85B
:1011F00014059DF86E100120884004909DF86F0042
:10120000032808DCFFE79DF86F104FF0402000EB4B
:101210000130039008E09DF86F100020C4F2020036
:1012200000EB01300390FFE7049A0399D1F80C0515
:101230001043C1F80C059DF86E1001208840C04392
:1012400002909DF86F00032808DCFFE79DF86F10FF
:101250004FF0402000EB0130019008E09DF86F1046
:101260000020C4F2020000EB01300190FFE7029A77
:101270000199D1F818051040C1F81805FFE764205E
:101280001CB0704785B08DF813008DF812108DF8E2
:1012900011209DF8110020BBFFE79DF812100120DE
:1012A0008840C04303909DF81300032808DCFFE743
:1012B0009DF813104FF0402000EB0130029008E041
:1012C0009DF813100020C4F2020000EB01300290E0
:1012D000FFE7039A0299D1F804041040C1F804040E
:1012E00028E09DF81100012823D1FFE79DF8121096
:1012F0000120884001909DF81300032808DCFFE7D7
:101300009DF813104FF0402000EB0130009008E0F2
:101310009DF813100020C4F2020000EB0130009091
:10132000FFE7019A0099D1F804041043C1F80404BE
:10133000FFE7FFE705B0704786B004908DF80F1007
:10134000049800788DF80E00049840788DF80D0010
:1013500004988078012840F04881FFE79DF80E004E
:10136000C8B1FFE79DF80E00012814D0FFE79DF8F3
:101370000E0002280FD0FFE79DF80E0003280AD0C8
:10138000FFE79DF80E00042805D0FFE79DF80E004A
:10139000052801D1FFE70BE041F69230C0F20000D2
:1013A00041F66041C0F2000140F20912FFF738F83F
:1013B0009DF80E100120029021B3FFE79DF80E105A
:1013C0000120012902901DD0FFE79DF80E10012099
:1013D0000229029016D0FFE79DF80E100120032984
:1013E00002900FD0FFE79DF80E1001200429029013
:1013F00008D0FFE79DF80E000538B0FA80F04009EC
:101400000290FFE702989DF80E0001460191052821
:1014100000F2EA800199DFE801F003294F759BC1D2
:101420009DF80F0001280DD1FFE79DF80D10012058
:1014300000FA01F244F2FC31C4F2000108681043E2
:10144000086012E09DF80F0068B9FFE79DF80D10E5
:10145000012000FA01F244F2FC31C4F200010868F4
:101460009043086000E0FFE7FFE7BDE09DF80F0054
:1014700001280DD1FFE79DF80D10012000FA01F2BF
:1014800045F2FC31C4F2000108681043086012E024
:101490009DF80F0068B9FFE79DF80D10012000FAD4
:1014A00001F245F2FC31C4F2000108689043086083
:1014B00000E0FFE7FFE797E09DF80F0001280DD15E
:1014C000FFE79DF80D10012000FA01F246F2FC3111
:1014D000C4F2000108681043086012E09DF80F0094
:1014E00068B9FFE79DF80D10012000FA01F246F2FD
:1014F000FC31C4F2000108689043086000E0FFE797
:10150000FFE771E09DF80F0001280DD1FFE79DF87E
:101510000D10012000FA01F247F2FC31C4F2000183
:1015200008681043086012E09DF80F0068B9FFE7F3
:101530009DF80D10012000FA01F247F2FC31C4F2CF
:10154000000108689043086000E0FFE7FFE74BE018
:101550009DF80F0001280DD1FFE79DF80D10012027
:1015600000FA01F244F2FC31C4F2020108681043AF
:10157000086012E09DF80F0068B9FFE79DF80D10B4
:10158000012000FA01F244F2FC31C4F202010868C1
:101590009043086000E0FFE7FFE725E09DF80F00BB
:1015A00001280DD1FFE79DF80D10012000FA01F28E
:1015B00045F2FC31C4F2020108681043086012E0F1
:1015C0009DF80F0068B9FFE79DF80D10012000FAA3
:1015D00001F245F2FC31C4F2020108689043086050
:1015E00000E0FFE7FFE7FFE703E069208DF8170061
:1015F00003E064208DF81700FFE79DF8170006B0A0
:101600007047000080B582B00190019800210091E0
:10161000FFF792FE009901980830FFF78DFE0099C0
:1016200001981030FFF788FE02B080BD80B582B00F
:101630000190019800210091FFF77EFE009901982A
:101640000830FFF779FE019810300121FFF774FE92
:1016500002B080BD80B582B0019000208DF80300FB
:101660008DF80300FFE79DF8030002280EDCFFE77A
:1016700001989DF8031000EBC100FFF7DDF8FFE7CC
:101680009DF8030001308DF80300ECE702B080BD47
:1016900081B04EF68851CEF20001086840F4700027
:1016A00008604EF27001C4F20F0142F61000C0F261
:1016B000807008604EF26002C4F20F0243F6D1203F
:1016C000C0F28E70106042F64250C0F29E10106060
:1016D00042F60000C0F28010086000200090FFE792
:1016E0000098C0087C2805D8FFE7FFE70098013084
:1016F0000090F5E74EF26001C4F20F0140F642504F
:10170000C0F29E1008604EF27001C4F20F0140F664
:101710000000C0F28010086000200090FFE70098F1
:10172000C0087C2805D8FFE7FFE70098013000904B
:10173000F5E74EF26001C4F20F0140F64250C0F2EC
:10174000DE100860FFE74EF25000C4F20F000068A0
:1017500000F04000402801D0FFE7F4E74EF26001BE
:10176000C4F20F0140F24250C0F2DE1008604EF2A7
:101770007001C4F20F014FF0C070086000200090AB
:10178000FFE7009842F20F71884205D8FFE7FFE7B4
:10179000009801300090F4E701B0704781B08DF8F7
:1017A00003009DF8030002032421C4F203018858BA
:1017B00040F0010088509DF803000203012088508A
:1017C00001B0704781B08DF803008DF802109DF8CC
:1017D000020058B9FFE79DF8030002030421C4F298
:1017E0000301885820F01000885011E09DF8020095
:1017F00001280BD1FFE79DF8030002030421C4F286
:101800000301885840F01000885000E0FFE7FFE730
:1018100001B0704780B584B0039002910020ADF80C
:101820000600ADF80600FFE7BDF806000299884201
:1018300013D2FFE7FFE70398007800F079F808B9C2
:10184000FFE7F8E703980078FFF7A8FFFFE7BDF888
:1018500006000130ADF80600E6E704B080BD0000E8
:1018600081B08DF803009DF8030002030C21C4F23F
:101870000301885820F00100885001B07047000033
:1018800082B08DF807009DF80700014600910528F9
:101890003BD80099DFE801F0030C151E27304EF20B
:1018A0000461C4F20F01086840F0010008602CE0F8
:1018B0004EF20461C4F20F01086840F002000860B3
:1018C00023E04EF20461C4F20F01086840F0040006
:1018D00008601AE04EF20461C4F20F01086840F09B
:1018E0000800086011E04EF20461C4F20F010868BC
:1018F00040F01000086008E04EF20461C4F20F01ED
:10190000086840F020000860FFE702B07047000060
:1019100081B08DF803009DF8030002030C21C4F28E
:101920000301885840F00100885001B07047000062
:1019300081B08DF802009DF8020001031C20C4F262
:101940000300405800F001008DF801009DF80100EF
:1019500020B9FFE700208DF8030009E09DF80100A1
:10196000012804D1FFE701208DF8030000E0FFE724
:101970009DF8030001B0704780B582B001900198D6
:101980000078FFF77DFF01980078FFF769FF019964
:101990000878497800F074F801990878897800F09F
:1019A00023F801990878097AFFF70CFF0199087864
:1019B000496800F00BF801980078FFF7EFFE0198F6
:1019C0000078FFF7A5FF02B080BD000082B08DF85F
:1019D0000700009100989DF807100A032821C4F21F
:1019E0000301885002B0704782B08DF807008DF86F
:1019F00006109DF8060001460091012808D0FFE777
:101A00000098022816D0FFE70098032824D035E07C
:101A10009DF8070002030421C4F20301885820F056
:101A2000020088509DF807000203885840F001002A
:101A3000885023E09DF8070002030421C4F203014B
:101A4000885840F0020088509DF80700020388582B
:101A500020F00100885011E09DF8070002030421E6
:101A6000C4F20301885840F0020088509DF8070036
:101A70000203885840F001008850FFE702B0704729
:101A800081B08DF803008DF802109DF8020048B96E
:101A9000FFE79DF8030002030021C4F203010420C4
:101AA00088500FE09DF80200012809D1FFE79DF85A
:101AB000030002030021C4F203010020885000E06B
:101AC000FFE7FFE701B0704781B0ADF80200BDF954
:101AD000020000280ED4FFE7BDF9021001F01F023A
:101AE000012090404A094EF20011CEF2000141F867
:101AF0002200FFE701B0704780B582B0002001905E
:101B0000FEF766FDFFE7FEF77DFDFCE7F1EE100A4C
:101B10004FF6FF71C0F2C03120EA010040F0407082
:101B2000E1EE100A7047656E5F4750494F5F64727F
:101B300069766543757272656E74203D3D2044522E
:101B40004956455F326D41207C7C20656E5F475071
:101B5000494F5F647269766543757272656E742071
:101B60003D3D2044524956455F346D41207C7C20E8
:101B7000656E5F4750494F5F647269766543757261
:101B800072656E74203D3D2044524956455F386D64
:101B90004100706F72744E756D203D3D20504F5264
:101BA000545F41207C7C20706F72744E756D203DB7
:101BB0003D20504F52545F42207C7C20706F7274E5
:101BC0004E756D203D3D20504F52545F43207C7C2C
:101BD00020706F72744E756D203D3D20504F5254F1
:101BE0005F44207C7C20706F72744E756D203D3D8B
:101BF00020504F52545F45207C7C20706F72744E91
:101C0000756D203D3D20504F52545F4600656E5F1C
:101C10004750494F5F70756C6C203D3D2050554CCE
:101C20004C5F5550207C7C20656E5F4750494F5F6C
:101C300070756C6C203D3D2050554C4C5F444F57A7
:101C40004E207C7C20656E5F4750494F5F70756CFD
:101C50006C203D3D204F50454E5F445241494E005F
:101C60004D43414C2F4750494F2F4750494F2E630A
:101C700000000000981C0000000000203800000058
:101C8000A8020000D01C00003800002068020000FC
:101C9000C40200000000000096005E012C01C80094
:101CA000C2013200000002007F3E0000010000007F
:101CB0000504000100010000050101000100000011
:101CC00005020101010000000503010201000000FE
:040000050000026D88
:00000001FF
