:020000040000FA
:10000000880200200D030000150300001703000004
:10001000190300001B0300001D0300000000000086
:100020000000000000000000000000001F030000AE
:10003000210300000000000023030000250300004E
:1000400027030000290300002B0300002D030000FC
:100050002F030000310300003303000035030000CC
:1000600037030000390300003B0300003D0300009C
:100070003F0300004103000043030000450300006C
:1000800047030000490300004B0300004D0300003C
:100090004F0300005103000053030000550300000C
:1000A00057030000590300005B0300005D030000DC
:1000B0005F030000610300006303000065030000AC
:1000C00067030000690300006B0300006D0300007C
:1000D0006F0300007103000073030000750300004C
:1000E0007703000079030000000000007B0300009C
:1000F0007D0300007F0300008103000083030000F4
:100100008503000087030000890300008B030000C3
:1001100000000000000000008D0300008F030000BD
:100120009103000093030000950300009703000073
:10013000990300009B0300009D0300009F03000043
:1001400000000000000000000000000000000000AF
:10015000A1030000A3030000A5030000A703000003
:10016000000000000000000000000000000000008F
:10017000000000000000000000000000000000007F
:10018000000000000000000000000000000000006F
:10019000000000000000000000000000000000005F
:1001A000000000000000000000000000000000004F
:1001B000A9030000AB030000AD030000AF03000083
:1001C000B1030000B3030000B5030000B703000053
:1001D000B9030000BB030000BD030000BF03000023
:1001E000C1030000C3030000C503000000000000BD
:1001F00000000000C7030000C9030000CB0300009B
:10020000CD030000CF03000000000000000000004C
:10021000D1030000D3030000D5030000D703000082
:10022000D9030000DB030000DD030000DF03000052
:10023000E1030000E3030000E5030000E703000022
:10024000E9030000EB030000ED030000EF030000F2
:10025000F1030000F3030000F5030000F7030000C2
:10026000F9030000FB030000FD03000000F002F8AA
:1002700000F03CF80AA090E8000C82448344AAF104
:100280000107DA4501D100F031F8AFF2090EBAE802
:100290000F0013F0010F18BFFB1A43F001031847BA
:1002A000E817000008180000103A24BF78C878C189
:1002B000FAD8520724BF30C830C144BF04680C606C
:1002C000704700000023002400250026103A28BFB4
:1002D00078C1FBD8520728BF30C148BF0B607047B8
:1002E0001FB501F01DFB1FBD10B510BD00F006F9D4
:1002F0001146FFF7F5FF01F009FB00F024F903B404
:10030000FFF7F2FF03BC00F0EBF800003F48804726
:100310003F480047FEE7FEE7FEE7FEE7FEE7FEE7B1
:10032000FEE7FEE7FEE7FEE7FEE7FEE7FEE7FEE7A5
:10033000FEE7FEE7FEE7FEE7FEE7FEE7FEE7FEE795
:10034000FEE7FEE7FEE7FEE7FEE7FEE7FEE7FEE785
:10035000FEE7FEE7FEE7FEE7FEE7FEE7FEE7FEE775
:10036000FEE7FEE7FEE7FEE7FEE7FEE7FEE7FEE765
:10037000FEE7FEE7FEE7FEE7FEE7FEE7FEE7FEE755
:10038000FEE7FEE7FEE7FEE7FEE7FEE7FEE7FEE745
:10039000FEE7FEE7FEE7FEE7FEE7FEE7FEE7FEE735
:1003A000FEE7FEE7FEE7FEE7FEE7FEE7FEE7FEE725
:1003B000FEE7FEE7FEE7FEE7FEE7FEE7FEE7FEE715
:1003C000FEE7FEE7FEE7FEE7FEE7FEE7FEE7FEE705
:1003D000FEE7FEE7FEE7FEE7FEE7FEE7FEE7FEE7F5
:1003E000FEE7FEE7FEE7FEE7FEE7FEE7FEE7FEE7E5
:1003F000FEE7FEE7FEE7FEE7FEE7FEE7FEE70000BA
:1004000004480549034A054B7047000001180000E5
:100410006D02000088000020880200208800002073
:100420000EB5054614460E4613A000F047F82846C0
:1004300000F044F816A000F041F8304600F03EF815
:1004400015A000F03BF800218DF80B100A210DF1EA
:100450000A008DF80A1008E094FBF1F201FB124249
:1004600094FBF1F4303200F8012D002CF4DC00F0A4
:1004700025F800F018F800002A2A2A206173736515
:100480007274696F6E206661696C65643A20000061
:100490002C2066696C6520002C206C696E6520003C
:1004A00070477047704710B5002000F01FF8FFF745
:1004B0001BFFBDE81040012000F012B810B5044643
:1004C00002E0641C00F004F820780028F9D110BD87
:1004D00008B569468DF800000320ABBE08BD0000DA
:1004E00001491820ABBEFEE72600020010B500F05F
:1004F00039F8BDE8104000F02FB87047754600F09D
:1005000049F8AE4605006946534620F00700854687
:1005100018B020B5FFF774FFBDE820404FF000068B
:100520004FF000074FF000084FF0000BAC46ACE86E
:10053000C009ACE8C009ACE8C009ACE8C00921F0CA
:1005400007018D46704710B50446AFF30080204682
:10055000BDE81040FFF7D3BE002801D0FFF7C0BFB1
:100560007047000010B5002102A000F017F801202C
:1005700010BD0000534947414252543A2041626E37
:100580006F726D616C207465726D696E6174696FF4
:100590006E000000004870472000002070B505463E
:1005A0000C460A2000E06D1CFFF792FF35B1287859
:1005B0000028F8D102E0641CFFF78AFF14B120780C
:1005C0000028F8D1BDE870400A20FFF781BF000085
:1005D00080B540F20500C2F2000001F051F840F28F
:1005E0000000C2F2000000F00FF940F21400C2F265
:1005F000000001F0ABF880BD80B586B040F200008D
:10060000C2F2000040F28201C2F20001059100F046
:100610001BF90598007801280ED1FFE740F283010D
:10062000C2F2000108780130087040F28601C2F27F
:10063000000100200880FFE740F28300C2F20000C2
:100640000078013801460491052800F28880049959
:10065000DFE801F003203D5A777E40F28600C2F2C7
:100660000000008878B9FFE740F20500C2F2000000
:10067000039000F0F1FF4FF6FF7001F021F80398AE
:1006800000F09AFFFFE740F28601C2F2000101206C
:10069000088064E040F28600C2F20000008878B969
:1006A000FFE740F20500C2F20000029000F0C0FF38
:1006B00042F2107001F004F8029800F07DFFFFE7AD
:1006C00040F28601C2F200010120088047E040F2BA
:1006D0008600C2F20000008878B9FFE740F205000A
:1006E000C2F20000019000F08FFF42F2107000F0A3
:1006F000E7FF019800F060FFFFE740F28601C2F2D9
:100700000001012008802AE040F28600C2F20000C9
:10071000008878B9FFE740F20500C2F200000090BF
:1007200000F05EFF42F2107000F0CAFF009800F087
:1007300043FFFFE740F28601C2F20001012008807A
:100740000DE040F20500C2F2000000F035FF06E0C7
:1007500040F28301C2F2000100200870FFE706B0FA
:1007600080BD000080B584B00390029100208DF818
:1007700007008DF806008DF8050003980DF10501BE
:1007800000F00EF99DF80500012804D1FFE70020D4
:100790008DF8070003E001208DF80700FFE79DF8C2
:1007A00007009DF80610884208D0FFE740F280015C
:1007B000C2F2000108880130088006E040F28001A2
:1007C000C2F2000100200880FFE740F28000C2F280
:1007D0000000008842F2283188420EDBFFE740F239
:1007E0008001C2F20001002008809DF807008DF80A
:1007F000060002990120087003E0029900200870A9
:10080000FFE704B080BD000080B582B001900020F9
:100810008DF803008DF80300FFE79DF80300002822
:100820000FDCFFE701989DF8031001EB81010844FC
:1008300000F050F8FFE79DF8030001308DF8030049
:10084000EBE702B080BD000080B582B0019000915E
:1008500001980099FFF786FF02B080BD83B08DF844
:100860000B008DF80A109DF80A10012088400190B5
:100870009DF80B00032808DCFFE79DF80B104FF0F4
:10088000402000EB0130009008E09DF80B100020A4
:10089000C4F2020000EB01300090FFE7019A0099DA
:1008A000D1F81C051043C1F81C05642003B0704743
:1008B00081B08DF803009DF80310012000FA01F2C9
:1008C0004EF20861C4F20F0108681043086064200A
:1008D00001B0704780B584B00290029800285AD0C9
:1008E000FFE702980078FFF7E3FF8DF807009DF817
:1008F0000700642804D0FFE765208DF80F004BE067
:10090000029A10785178927800F01AF98DF8070061
:100910009DF80700642805D0FFE79DF807008DF8D3
:100920000F0039E0029A10785178D27800F06EF911
:100930008DF807009DF80700642805D0FFE79DF8B3
:1009400007008DF80F0027E0029A1078517812798D
:1009500000F0E0FA8DF807009DF80700642805D044
:10096000FFE79DF807008DF80F0015E00299087861
:100970004978FFF773FF8DF807009DF8070064289A
:1009800005D0FFE79DF807008DF80F0004E0642014
:100990008DF80F0000E0FFE79DF80F0004B080BD68
:1009A00086B004900391049800788DF80B000498A9
:1009B00040788DF80A000498807830B1FFE70498F9
:1009C0008078012840F0B080FFE79DF80B00C8B1A7
:1009D000FFE79DF80B00012814D0FFE79DF80B00FE
:1009E00002280FD0FFE79DF80B0003280AD0FFE78D
:1009F0009DF80B00042805D0FFE79DF80B000528A3
:100A000001D1FFE70AE041F6A610C0F2000041F66E
:100A10007421C0F20001AF22FFF702FD9DF80B1018
:100A20000120019021B3FFE79DF80B10012001295F
:100A300001901DD0FFE79DF80B10012002290190C5
:100A400016D0FFE79DF80B100120032901900FD06D
:100A5000FFE79DF80B1001200429019008D0FFE763
:100A60009DF80B000538B0FA80F040090190FFE7CF
:100A700001989DF80B0001460091052853D8009974
:100A8000DFE801F003101D2A374444F2FC30C4F2C1
:100A9000000000689DF80A10C84000F001000399AA
:100AA000087040E045F2FC30C4F2000000689DF898
:100AB0000A10C84000F001000399087033E046F2C4
:100AC000FC30C4F2000000689DF80A10C84000F035
:100AD00001000399087026E047F2FC30C4F20000E0
:100AE00000689DF80A10C84000F0010003990870E2
:100AF00019E044F2FC30C4F2020000689DF80A10CC
:100B0000C84000F00100039908700CE045F2FC3089
:100B1000C4F2020000689DF80A10C84000F001000D
:100B200003990870FFE703E069208DF8170003E0E0
:100B300064208DF81700FFE79DF8170006B0704796
:100B400085B08DF812008DF811108DF810209DF8E9
:100B50001000012826D1FFE79DF8111001208840E0
:100B600003909DF81200032808DCFFE79DF812109F
:100B70004FF0402000EB0130029008E09DF8121089
:100B80000020C4F2020000EB01300290FFE7039A5C
:100B90000299D1F800041043C1F8000464208DF8D4
:100BA00013002EE09DF8100038BBFFE79DF81110F0
:100BB00001208840C04301909DF81200032808DC02
:100BC000FFE79DF812104FF0402000EB013000903D
:100BD00008E09DF812100020C4F2020000EB013082
:100BE0000090FFE7019A0099D1F800041040C1F885
:100BF000000464208DF8130003E066208DF81300D4
:100C0000FFE79DF8130005B07047000096B08DF81F
:100C100057008DF856108DF855209DF8550050B1AD
:100C2000FFE79DF85500012805D0FFE79DF8550026
:100C3000022801D1FFE70AE041F63A10C0F20000B5
:100C400041F67421C0F200013222FFF7E9FB9DF862
:100C500055100120149079B1FFE79DF8551001203F
:100C60000129149008D0FFE79DF855000238B0FA2A
:100C700080F040091490FFE714989DF85500014654
:100C8000139148B1FFE7139801286ED0FFE713983E
:100C9000022800F0D3803AE19DF8561001208840E8
:100CA00012909DF85700032808DCFFE79DF85710C5
:100CB0004FF0402000EB0130119008E09DF85710F4
:100CC0000020C4F2020000EB01301190FFE7129AFD
:100CD0001199D1F800051043C1F800059DF8561090
:100CE00001208840C04310909DF85700032808DC7D
:100CF000FFE79DF857104FF0402000EB01300F90B8
:100D000008E09DF857100020C4F2020000EB01300B
:100D10000F90FFE7109A0F99D1F804051040C1F821
:100D200004059DF8561001208840C0430E909DF8A0
:100D30005700032808DCFFE79DF857104FF04020CC
:100D400000EB01300D9008E09DF857100020C4F230
:100D5000020000EB01300D90FFE70E9A0D99D1F8DB
:100D600008051040C1F80805D1E09DF85610012093
:100D70008840C0430C909DF85700032808DCFFE72B
:100D80009DF857104FF0402000EB01300B9008E029
:100D90009DF857100020C4F2020000EB01300B90C8
:100DA000FFE70C9A0B99D1F800051040C1F8000537
:100DB0009DF85610012088400A909DF8570003289E
:100DC00008DCFFE79DF857104FF0402000EB0130A2
:100DD000099008E09DF857100020C4F2020000EBD3
:100DE00001300990FFE70A9A0999D1F804051043E8
:100DF000C1F804059DF8561001208840C0430890B2
:100E00009DF85700032808DCFFE79DF857104FF0C6
:100E1000402000EB0130079008E09DF857100020BB
:100E2000C4F2020000EB01300790FFE7089A07992F
:100E3000D1F808051040C1F8080568E09DF8561083
:100E400001208840C04306909DF85700032808DC25
:100E5000FFE79DF857104FF0402000EB0130059060
:100E600008E09DF857100020C4F2020000EB0130AA
:100E70000590FFE7069A0599D1F800051040C1F8E2
:100E800000059DF8561001208840C04304909DF84D
:100E90005700032808DCFFE79DF857104FF040206B
:100EA00000EB0130039008E09DF857100020C4F2D9
:100EB000020000EB01300390FFE7049A0399D1F898
:100EC00004051040C1F804059DF856100120884023
:100ED00002909DF85700032808DCFFE79DF85710A3
:100EE0004FF0402000EB0130019008E09DF85710D2
:100EF0000020C4F2020000EB01300190FFE7029AEB
:100F00000199D1F808051043C1F80805FFE76420EE
:100F100016B070479CB08DF86F008DF86E108DF88C
:100F20006D209DF86D0050B1FFE79DF86D00012820
:100F300005D0FFE79DF86D00022801D1FFE70AE028
:100F400041F62120C0F2000041F67421C0F20001F8
:100F50004F22FFF765FA9DF86D1001201A9079B1C4
:100F6000FFE79DF86D10012001291A9008D0FFE7D6
:100F70009DF86D000238B0FA80F040091A90FFE742
:100F80001A989DF86D000146199150B1FFE7199824
:100F9000012800F09280FFE71998022800F01981DB
:100FA000A3E19DF86E100120884018909DF86F0015
:100FB000032808DCFFE79DF86F104FF0402000EB9E
:100FC0000130179008E09DF86F100020C4F2020075
:100FD00000EB01301790FFE7189A1799D1F8100528
:100FE0001043C1F810059DF86E1001208840C043E1
:100FF00016909DF86F00032808DCFFE79DF86F103E
:101000004FF0402000EB0130159008E09DF86F1084
:101010000020C4F2020000EB01301590FFE7169AA1
:101020001599D1F814051040C1F814059DF86E10FB
:1010300001208840C04314909DF86F00032808DC0D
:10104000FFE79DF86F104FF0402000EB0130139048
:1010500008E09DF86F100020C4F2020000EB0130A0
:101060001390FFE7149A1399D1F80C051040C1F8BA
:101070000C059DF86E1001208840C04312909DF829
:101080006F00032808DCFFE79DF86F104FF0402049
:1010900000EB0130119008E09DF86F100020C4F2C1
:1010A000020000EB01301190FFE7129A1199D1F87C
:1010B00018051040C1F8180517E19DF86E100120C1
:1010C0008840C04310909DF86F00032808DCFFE7BC
:1010D0009DF86F104FF0402000EB01300F9008E0BA
:1010E0009DF86F100020C4F2020000EB01300F9059
:1010F000FFE7109A0F99D1F810051040C1F81005BC
:101100009DF86E10012088400E909DF86F00032816
:1011100008DCFFE79DF86F104FF0402000EB013036
:101120000D9008E09DF86F100020C4F2020000EB63
:1011300001300D90FFE70E9A0D99D1F81405104378
:10114000C1F814059DF86E1001208840C0430C9032
:101150009DF86F00032808DCFFE79DF86F104FF043
:10116000402000EB01300B9008E09DF86F1000204C
:10117000C4F2020000EB01300B90FFE70C9A0B99D0
:10118000D1F80C051040C1F80C059DF86E10012037
:101190008840C0430A909DF86F00032808DCFFE7F1
:1011A0009DF86F104FF0402000EB0130099008E0EF
:1011B0009DF86F100020C4F2020000EB013009908E
:1011C000FFE70A9A0999D1F818051040C1F81805E7
:1011D0008BE09DF86E1001208840C04308909DF878
:1011E0006F00032808DCFFE79DF86F104FF04020E8
:1011F00000EB0130079008E09DF86F100020C4F26A
:10120000020000EB01300790FFE7089A0799D1F838
:1012100010051040C1F810059DF86E10012088409F
:10122000C04306909DF86F00032808DCFFE79DF897
:101230006F104FF0402000EB0130059008E09DF862
:101240006F100020C4F2020000EB01300590FFE7B0
:10125000069A0599D1F814051040C1F814059DF8B7
:101260006E100120884004909DF86F00032808DC70
:10127000FFE79DF86F104FF0402000EB0130039026
:1012800008E09DF86F100020C4F2020000EB01306E
:101290000390FFE7049A0399D1F80C051043C1F8B5
:1012A0000C059DF86E1001208840C04302909DF807
:1012B0006F00032808DCFFE79DF86F104FF0402017
:1012C00000EB0130019008E09DF86F100020C4F29F
:1012D000020000EB01300190FFE7029A0199D1F87A
:1012E00018051040C1F81805FFE764201CB07047CE
:1012F00086B004908DF80F10049800788DF80E00D9
:10130000049840788DF80D0004988078012840F00A
:101310004781FFE79DF80E00C8B1FFE79DF80E007A
:10132000012814D0FFE79DF80E0002280FD0FFE738
:101330009DF80E0003280AD0FFE79DF80E00042850
:1013400005D0FFE79DF80E00052801D1FFE70AE070
:1013500041F6A610C0F2000041F67421C0F200016F
:10136000DA22FFF75DF89DF80E100120029021B3FC
:10137000FFE79DF80E100120012902901DD0FFE724
:101380009DF80E1001200229029016D0FFE79DF86B
:101390000E100120032902900FD0FFE79DF80E10D8
:1013A00001200429029008D0FFE79DF80E000538BF
:1013B000B0FA80F040090290FFE702989DF80E0015
:1013C00001460191052800F2EA800199DFE801F069
:1013D00003294F759BC19DF80F0001280DD1FFE730
:1013E0009DF80D10012000FA01F244F2FC31C4F224
:1013F000000108681043086012E09DF80F0068B90A
:10140000FFE79DF80D10012000FA01F244F2FC31D3
:10141000C4F2000108689043086000E0FFE7FFE7BE
:10142000BDE09DF80F0001280DD1FFE79DF80D10DC
:10143000012000FA01F245F2FC31C4F20001086813
:101440001043086012E09DF80F0068B9FFE79DF8AF
:101450000D10012000FA01F245F2FC31C4F2000146
:1014600008689043086000E0FFE7FFE797E09DF819
:101470000F0001280DD1FFE79DF80D10012000FAA3
:1014800001F246F2FC31C4F2000108681043086022
:1014900012E09DF80F0068B9FFE79DF80D100120DC
:1014A00000FA01F246F2FC31C4F2000108689043F0
:1014B000086000E0FFE7FFE771E09DF80F000128FA
:1014C0000DD1FFE79DF80D10012000FA01F247F25F
:1014D000FC31C4F2000108681043086012E09DF876
:1014E0000F0068B9FFE79DF80D10012000FA01F226
:1014F00047F2FC31C4F2000108689043086000E044
:10150000FFE7FFE74BE09DF80F0001280DD1FFE753
:101510009DF80D10012000FA01F244F2FC31C4F2F2
:10152000020108681043086012E09DF80F0068B9D6
:10153000FFE79DF80D10012000FA01F244F2FC31A2
:10154000C4F2020108689043086000E0FFE7FFE78B
:1015500025E09DF80F0001280DD1FFE79DF80D1043
:10156000012000FA01F245F2FC31C4F202010868E0
:101570001043086012E09DF80F0068B9FFE79DF87E
:101580000D10012000FA01F245F2FC31C4F2020113
:1015900008689043086000E0FFE7FFE7FFE703E02B
:1015A00069208DF8170003E064208DF81700FFE72D
:1015B0009DF8170006B0704780B582B00190019881
:1015C00000210091FFF794FE009901980530FFF784
:1015D0008FFE009901980A30FFF78AFE02B080BDA5
:1015E00080B582B00190019801210091FFF780FE43
:1015F000009901980530FFF77BFE009901980A30A9
:10160000FFF776FE02B080BD80B582B001900198F0
:1016100000210091FFF76CFE019805300121FFF7D2
:1016200067FE009901980A30FFF762FE02B080BDA4
:1016300080B582B00190019800210091FFF758FE1B
:10164000009901980530FFF753FE01980A300121F7
:10165000FFF74EFE02B080BD80B582B001900198C8
:101660000121FFF745FE0198053000210091FFF7A9
:101670003FFE009901980A30FFF73AFE02B080BDA4
:1016800080B582B0019000208DF803008DF8030032
:10169000FFE79DF8030002280FDCFFE701989DF8A3
:1016A000031001EB81010844FFF714F9FFE79DF8EF
:1016B000030001308DF80300EBE702B080BD0000AD
:1016C00080B584B0039000208DF80B000190039842
:1016D0004FF47A71484300EE100AB8EE400A9DEDCF
:1016E000011A80EE010ABCEEC00A8DED000A0098D6
:1016F00001384EF21401CEF20001086000F064F8E7
:1017000000F06AF8FFE79DF80B0028B9FFE70DF13C
:101710000B0000F005F8F6E700F068F804B080BDB3
:1017200081B000904EF21000CEF200000068000C74
:10173000C00720B1FFE700990120087003E000997D
:1017400000200870FFE701B07047000081B00090F2
:10175000009850B3FFE74EF21001CEF20001086886
:1017600020F0010008604EF21802CEF200020020C4
:101770001060086840F004000860009800790128B3
:1017800009D1FFE74EF21001CEF20001086840F0E7
:101790000200086008E04EF21001CEF20001086875
:1017A00020F002000860FFE706E040F28401C2F288
:1017B0000001C8200870FFE740F28401C2F2000176
:1017C000C920087001B070474EF21801CEF2000136
:1017D00000200860704700004EF21001CEF20001B8
:1017E000086840F001000860704700004EF21001E8
:1017F000CEF20001086820F0010008607047000088
:1018000081B04EF68851CEF20001086840F47000B5
:1018100008604EF27001C4F20F0142F61000C0F2EF
:10182000807008604EF26002C4F20F0243F6D120CD
:10183000C0F28E70106042F64250C0F29E101060EE
:1018400042F60000C0F28010086000200090FFE720
:101850000098C0087C2805D8FFE7FFE70098013012
:101860000090F5E74EF26001C4F20F0140F64250DD
:10187000C0F29E1008604EF27001C4F20F0140F6F3
:101880000000C0F28010086000200090FFE7009880
:10189000C0087C2805D8FFE7FFE7009801300090DA
:1018A000F5E74EF26001C4F20F0140F64250C0F27B
:1018B000DE100860FFE74EF25000C4F20F0000682F
:1018C00000F04000402801D0FFE7F4E74EF260014D
:1018D000C4F20F0140F24250C0F2DE1008604EF236
:1018E0007001C4F20F014FF0C0700860002000903A
:1018F000FFE7009842F20F71884205D8FFE7FFE743
:10190000009801300090F4E701B0704780B582B0D4
:1019100000200190FEF75CFEFFE7FEF76DFEFCE79E
:10192000F1EE100A4FF6FF71C0F2C03120EA01005B
:1019300040F04070E1EE100A7047656E5F47504915
:101940004F5F647269766543757272656E74203D8F
:101950003D2044524956455F326D41207C7C2065D4
:101960006E5F4750494F5F64726976654375727266
:10197000656E74203D3D2044524956455F346D41AB
:10198000207C7C20656E5F4750494F5F64726976AA
:101990006543757272656E74203D3D204452495610
:1019A000455F386D4100706F72744E756D203D3D1E
:1019B00020504F52545F41207C7C20706F72744ED7
:1019C000756D203D3D20504F52545F42207C7C205D
:1019D000706F72744E756D203D3D20504F52545FB4
:1019E00043207C7C20706F72744E756D203D3D20CD
:1019F000504F52545F44207C7C20706F72744E753F
:101A00006D203D3D20504F52545F45207C7C20701E
:101A10006F72744E756D203D3D20504F52545F469D
:101A200000656E5F4750494F5F70756C6C203D3D9F
:101A30002050554C4C5F5550207C7C20656E5F4794
:101A400050494F5F70756C6C203D3D2050554C4C9B
:101A50005F444F574E207C7C20656E5F4750494F56
:101A60005F70756C6C203D3D204F50454E5F445279
:101A700041494E004D43414C2F4750494F2F47504D
:101A8000494F2E6300000000A81A0000000000204B
:101A900020000000A8020000C81A0000200000205A
:101AA00068020000C40200000504000100050101F5
:101AB000000105020101010503010201010000000E
:081AC00000000000000000001E
:040000050000026D88
:00000001FF
